{
  "_format": "hh-sol-artifact-1",
  "contractName": "HellToken",
  "sourceName": "contracts/HellToken.sol",
  "abi": [
    {
      "inputs": [
        {
          "internalType": "uint256",
          "name": "cap",
          "type": "uint256"
        }
      ],
      "stateMutability": "nonpayable",
      "type": "constructor"
    },
    {
      "anonymous": false,
      "inputs": [
        {
          "indexed": true,
          "internalType": "address",
          "name": "owner",
          "type": "address"
        },
        {
          "indexed": true,
          "internalType": "address",
          "name": "spender",
          "type": "address"
        },
        {
          "indexed": false,
          "internalType": "uint256",
          "name": "value",
          "type": "uint256"
        }
      ],
      "name": "Approval",
      "type": "event"
    },
    {
      "anonymous": false,
      "inputs": [
        {
          "indexed": true,
          "internalType": "address",
          "name": "from",
          "type": "address"
        },
        {
          "indexed": true,
          "internalType": "address",
          "name": "to",
          "type": "address"
        },
        {
          "indexed": false,
          "internalType": "uint256",
          "name": "value",
          "type": "uint256"
        }
      ],
      "name": "Transfer",
      "type": "event"
    },
    {
      "inputs": [
        {
          "internalType": "address",
          "name": "owner",
          "type": "address"
        },
        {
          "internalType": "address",
          "name": "spender",
          "type": "address"
        }
      ],
      "name": "allowance",
      "outputs": [
        {
          "internalType": "uint256",
          "name": "",
          "type": "uint256"
        }
      ],
      "stateMutability": "view",
      "type": "function"
    },
    {
      "inputs": [
        {
          "internalType": "address",
          "name": "spender",
          "type": "address"
        },
        {
          "internalType": "uint256",
          "name": "amount",
          "type": "uint256"
        }
      ],
      "name": "approve",
      "outputs": [
        {
          "internalType": "bool",
          "name": "",
          "type": "bool"
        }
      ],
      "stateMutability": "nonpayable",
      "type": "function"
    },
    {
      "inputs": [
        {
          "internalType": "address",
          "name": "account",
          "type": "address"
        }
      ],
      "name": "balanceOf",
      "outputs": [
        {
          "internalType": "uint256",
          "name": "",
          "type": "uint256"
        }
      ],
      "stateMutability": "view",
      "type": "function"
    },
    {
      "inputs": [
        {
          "internalType": "uint256",
          "name": "amount",
          "type": "uint256"
        }
      ],
      "name": "burn",
      "outputs": [],
      "stateMutability": "nonpayable",
      "type": "function"
    },
    {
      "inputs": [
        {
          "internalType": "address",
          "name": "account",
          "type": "address"
        },
        {
          "internalType": "uint256",
          "name": "amount",
          "type": "uint256"
        }
      ],
      "name": "burnFrom",
      "outputs": [],
      "stateMutability": "nonpayable",
      "type": "function"
    },
    {
      "inputs": [],
      "name": "cap",
      "outputs": [
        {
          "internalType": "uint256",
          "name": "",
          "type": "uint256"
        }
      ],
      "stateMutability": "view",
      "type": "function"
    },
    {
      "inputs": [],
      "name": "decimals",
      "outputs": [
        {
          "internalType": "uint8",
          "name": "",
          "type": "uint8"
        }
      ],
      "stateMutability": "view",
      "type": "function"
    },
    {
      "inputs": [
        {
          "internalType": "address",
          "name": "spender",
          "type": "address"
        },
        {
          "internalType": "uint256",
          "name": "subtractedValue",
          "type": "uint256"
        }
      ],
      "name": "decreaseAllowance",
      "outputs": [
        {
          "internalType": "bool",
          "name": "",
          "type": "bool"
        }
      ],
      "stateMutability": "nonpayable",
      "type": "function"
    },
    {
      "inputs": [],
      "name": "destroy",
      "outputs": [],
      "stateMutability": "nonpayable",
      "type": "function"
    },
    {
      "inputs": [
        {
          "internalType": "address",
          "name": "spender",
          "type": "address"
        },
        {
          "internalType": "uint256",
          "name": "addedValue",
          "type": "uint256"
        }
      ],
      "name": "increaseAllowance",
      "outputs": [
        {
          "internalType": "bool",
          "name": "",
          "type": "bool"
        }
      ],
      "stateMutability": "nonpayable",
      "type": "function"
    },
    {
      "inputs": [],
      "name": "name",
      "outputs": [
        {
          "internalType": "string",
          "name": "",
          "type": "string"
        }
      ],
      "stateMutability": "view",
      "type": "function"
    },
    {
      "inputs": [],
      "name": "owner",
      "outputs": [
        {
          "internalType": "address payable",
          "name": "",
          "type": "address"
        }
      ],
      "stateMutability": "view",
      "type": "function"
    },
    {
      "inputs": [],
      "name": "symbol",
      "outputs": [
        {
          "internalType": "string",
          "name": "",
          "type": "string"
        }
      ],
      "stateMutability": "view",
      "type": "function"
    },
    {
      "inputs": [],
      "name": "totalSupply",
      "outputs": [
        {
          "internalType": "uint256",
          "name": "",
          "type": "uint256"
        }
      ],
      "stateMutability": "view",
      "type": "function"
    },
    {
      "inputs": [
        {
          "internalType": "address",
          "name": "to",
          "type": "address"
        },
        {
          "internalType": "uint256",
          "name": "amount",
          "type": "uint256"
        }
      ],
      "name": "transfer",
      "outputs": [
        {
          "internalType": "bool",
          "name": "",
          "type": "bool"
        }
      ],
      "stateMutability": "nonpayable",
      "type": "function"
    },
    {
      "inputs": [
        {
          "internalType": "address",
          "name": "from",
          "type": "address"
        },
        {
          "internalType": "address",
          "name": "to",
          "type": "address"
        },
        {
          "internalType": "uint256",
          "name": "amount",
          "type": "uint256"
        }
      ],
      "name": "transferFrom",
      "outputs": [
        {
          "internalType": "bool",
          "name": "",
          "type": "bool"
        }
      ],
      "stateMutability": "nonpayable",
      "type": "function"
    }
  ],
  "bytecode": "0x60a06040523480156200001157600080fd5b50604051620027a6380380620027a68339818101604052810190620000379190620004be565b62000047620001c860201b60201c565b600a62000055919062000680565b81620000629190620006d1565b6040518060400160405280600981526020017f48656c6c546f6b656e00000000000000000000000000000000000000000000008152506040518060400160405280600281526020017f48540000000000000000000000000000000000000000000000000000000000008152508160039081620000df91906200098c565b508060049081620000f191906200098c565b505050600081116200013a576040517f08c379a0000000000000000000000000000000000000000000000000000000008152600401620001319062000ad4565b60405180910390fd5b80608081815250505033600560006101000a81548173ffffffffffffffffffffffffffffffffffffffff021916908373ffffffffffffffffffffffffffffffffffffffff160217905550620001c13362000199620001c860201b60201c565b600a620001a7919062000680565b6045620001b59190620006d1565b620001d160201b60201c565b5062000cb5565b60006012905090565b620001e16200026260201b60201c565b81620001f76200026c60201b620004001760201c565b62000203919062000af6565b111562000247576040517f08c379a00000000000000000000000000000000000000000000000000000000081526004016200023e9062000b81565b60405180910390fd5b6200025e82826200027660201b620007c11760201c565b5050565b6000608051905090565b6000600254905090565b620002866200026260201b60201c565b816200029c6200026c60201b620004001760201c565b620002a8919062000af6565b1115620002ec576040517f08c379a0000000000000000000000000000000000000000000000000000000008152600401620002e39062000bf3565b60405180910390fd5b6200030382826200030760201b6200082b1760201c565b5050565b600073ffffffffffffffffffffffffffffffffffffffff168273ffffffffffffffffffffffffffffffffffffffff160362000379576040517f08c379a0000000000000000000000000000000000000000000000000000000008152600401620003709062000c65565b60405180910390fd5b6200038d600083836200047460201b60201c565b8060026000828254620003a1919062000af6565b92505081905550806000808473ffffffffffffffffffffffffffffffffffffffff1673ffffffffffffffffffffffffffffffffffffffff168152602001908152602001600020600082825401925050819055508173ffffffffffffffffffffffffffffffffffffffff16600073ffffffffffffffffffffffffffffffffffffffff167fddf252ad1be2c89b69c2b068fc378daa952ba7f163c4a11628f55a4df523b3ef8360405162000454919062000c98565b60405180910390a362000470600083836200047960201b60201c565b5050565b505050565b505050565b600080fd5b6000819050919050565b620004988162000483565b8114620004a457600080fd5b50565b600081519050620004b8816200048d565b92915050565b600060208284031215620004d757620004d66200047e565b5b6000620004e784828501620004a7565b91505092915050565b7f4e487b7100000000000000000000000000000000000000000000000000000000600052601160045260246000fd5b60008160011c9050919050565b6000808291508390505b60018511156200057e57808604811115620005565762000555620004f0565b5b6001851615620005665780820291505b808102905062000576856200051f565b945062000536565b94509492505050565b6000826200059957600190506200066c565b81620005a957600090506200066c565b8160018114620005c25760028114620005cd5762000603565b60019150506200066c565b60ff841115620005e257620005e1620004f0565b5b8360020a915084821115620005fc57620005fb620004f0565b5b506200066c565b5060208310610133831016604e8410600b84101617156200063d5782820a905083811115620006375762000636620004f0565b5b6200066c565b6200064c84848460016200052c565b92509050818404811115620006665762000665620004f0565b5b81810290505b9392505050565b600060ff82169050919050565b60006200068d8262000483565b91506200069a8362000673565b9250620006c97fffffffffffffffffffffffffffffffffffffffffffffffffffffffffffffffff848462000587565b905092915050565b6000620006de8262000483565b9150620006eb8362000483565b9250828202620006fb8162000483565b91508282048414831517620007155762000714620004f0565b5b5092915050565b600081519050919050565b7f4e487b7100000000000000000000000000000000000000000000000000000000600052604160045260246000fd5b7f4e487b7100000000000000000000000000000000000000000000000000000000600052602260045260246000fd5b600060028204905060018216806200079e57607f821691505b602082108103620007b457620007b362000756565b5b50919050565b60008190508160005260206000209050919050565b60006020601f8301049050919050565b600082821b905092915050565b6000600883026200081e7fffffffffffffffffffffffffffffffffffffffffffffffffffffffffffffffff82620007df565b6200082a8683620007df565b95508019841693508086168417925050509392505050565b6000819050919050565b60006200086d62000867620008618462000483565b62000842565b62000483565b9050919050565b6000819050919050565b62000889836200084c565b620008a1620008988262000874565b848454620007ec565b825550505050565b600090565b620008b8620008a9565b620008c58184846200087e565b505050565b5b81811015620008ed57620008e1600082620008ae565b600181019050620008cb565b5050565b601f8211156200093c576200090681620007ba565b6200091184620007cf565b8101602085101562000921578190505b620009396200093085620007cf565b830182620008ca565b50505b505050565b600082821c905092915050565b6000620009616000198460080262000941565b1980831691505092915050565b60006200097c83836200094e565b9150826002028217905092915050565b62000997826200071c565b67ffffffffffffffff811115620009b357620009b262000727565b5b620009bf825462000785565b620009cc828285620008f1565b600060209050601f83116001811462000a045760008415620009ef578287015190505b620009fb85826200096e565b86555062000a6b565b601f19841662000a1486620007ba565b60005b8281101562000a3e5784890151825560018201915060208501945060208101905062000a17565b8683101562000a5e578489015162000a5a601f8916826200094e565b8355505b6001600288020188555050505b505050505050565b600082825260208201905092915050565b7f45524332304361707065643a2063617020697320300000000000000000000000600082015250565b600062000abc60158362000a73565b915062000ac98262000a84565b602082019050919050565b6000602082019050818103600083015262000aef8162000aad565b9050919050565b600062000b038262000483565b915062000b108362000483565b925082820190508082111562000b2b5762000b2a620004f0565b5b92915050565b7f4552433230436170706564203a20636170206578636565646564000000000000600082015250565b600062000b69601a8362000a73565b915062000b768262000b31565b602082019050919050565b6000602082019050818103600083015262000b9c8162000b5a565b9050919050565b7f45524332304361707065643a2063617020657863656564656400000000000000600082015250565b600062000bdb60198362000a73565b915062000be88262000ba3565b602082019050919050565b6000602082019050818103600083015262000c0e8162000bcc565b9050919050565b7f45524332303a206d696e7420746f20746865207a65726f206164647265737300600082015250565b600062000c4d601f8362000a73565b915062000c5a8262000c15565b602082019050919050565b6000602082019050818103600083015262000c808162000c3e565b9050919050565b62000c928162000483565b82525050565b600060208201905062000caf600083018462000c87565b92915050565b608051611ad562000cd160003960006104460152611ad56000f3fe608060405234801561001057600080fd5b50600436106101005760003560e01c806370a082311161009757806395d89b411161006657806395d89b411461029d578063a457c2d7146102bb578063a9059cbb146102eb578063dd62ed3e1461031b57610100565b806370a082311461022957806379cc67901461025957806383197ef0146102755780638da5cb5b1461027f57610100565b8063313ce567116100d3578063313ce567146101a1578063355274ea146101bf57806339509351146101dd57806342966c681461020d57610100565b806306fdde0314610105578063095ea7b31461012357806318160ddd1461015357806323b872dd14610171575b600080fd5b61010d61034b565b60405161011a91906110bb565b60405180910390f35b61013d60048036038101906101389190611176565b6103dd565b60405161014a91906111d1565b60405180910390f35b61015b610400565b60405161016891906111fb565b60405180910390f35b61018b60048036038101906101869190611216565b61040a565b60405161019891906111d1565b60405180910390f35b6101a9610439565b6040516101b69190611285565b60405180910390f35b6101c7610442565b6040516101d491906111fb565b60405180910390f35b6101f760048036038101906101f29190611176565b61046a565b60405161020491906111d1565b60405180910390f35b610227600480360381019061022291906112a0565b6104a1565b005b610243600480360381019061023e91906112cd565b6104b5565b60405161025091906111fb565b60405180910390f35b610273600480360381019061026e9190611176565b6104fd565b005b61027d61051d565b005b6102876105e8565b604051610294919061131b565b60405180910390f35b6102a561060e565b6040516102b291906110bb565b60405180910390f35b6102d560048036038101906102d09190611176565b6106a0565b6040516102e291906111d1565b60405180910390f35b61030560048036038101906103009190611176565b610717565b60405161031291906111d1565b60405180910390f35b61033560048036038101906103309190611336565b61073a565b60405161034291906111fb565b60405180910390f35b60606003805461035a906113a5565b80601f0160208091040260200160405190810160405280929190818152602001828054610386906113a5565b80156103d35780601f106103a8576101008083540402835291602001916103d3565b820191906000526020600020905b8154815290600101906020018083116103b657829003601f168201915b5050505050905090565b6000806103e8610981565b90506103f5818585610989565b600191505092915050565b6000600254905090565b600080610415610981565b9050610422858285610b52565b61042d858585610bde565b60019150509392505050565b60006012905090565b60007f0000000000000000000000000000000000000000000000000000000000000000905090565b600080610475610981565b9050610496818585610487858961073a565b6104919190611405565b610989565b600191505092915050565b6104b26104ac610981565b82610e54565b50565b60008060008373ffffffffffffffffffffffffffffffffffffffff1673ffffffffffffffffffffffffffffffffffffffff168152602001908152602001600020549050919050565b61050f82610509610981565b83610b52565b6105198282610e54565b5050565b600560009054906101000a900473ffffffffffffffffffffffffffffffffffffffff1673ffffffffffffffffffffffffffffffffffffffff163373ffffffffffffffffffffffffffffffffffffffff16146105ad576040517f08c379a00000000000000000000000000000000000000000000000000000000081526004016105a4906114ab565b60405180910390fd5b600560009054906101000a900473ffffffffffffffffffffffffffffffffffffffff1673ffffffffffffffffffffffffffffffffffffffff16ff5b600560009054906101000a900473ffffffffffffffffffffffffffffffffffffffff1681565b60606004805461061d906113a5565b80601f0160208091040260200160405190810160405280929190818152602001828054610649906113a5565b80156106965780601f1061066b57610100808354040283529160200191610696565b820191906000526020600020905b81548152906001019060200180831161067957829003601f168201915b5050505050905090565b6000806106ab610981565b905060006106b9828661073a565b9050838110156106fe576040517f08c379a00000000000000000000000000000000000000000000000000000000081526004016106f59061153d565b60405180910390fd5b61070b8286868403610989565b60019250505092915050565b600080610722610981565b905061072f818585610bde565b600191505092915050565b6000600160008473ffffffffffffffffffffffffffffffffffffffff1673ffffffffffffffffffffffffffffffffffffffff16815260200190815260200160002060008373ffffffffffffffffffffffffffffffffffffffff1673ffffffffffffffffffffffffffffffffffffffff16815260200190815260200160002054905092915050565b6107c9610442565b816107d2610400565b6107dc9190611405565b111561081d576040517f08c379a0000000000000000000000000000000000000000000000000000000008152600401610814906115a9565b60405180910390fd5b610827828261082b565b5050565b600073ffffffffffffffffffffffffffffffffffffffff168273ffffffffffffffffffffffffffffffffffffffff160361089a576040517f08c379a000000000000000000000000000000000000000000000000000000000815260040161089190611615565b60405180910390fd5b6108a660008383611021565b80600260008282546108b89190611405565b92505081905550806000808473ffffffffffffffffffffffffffffffffffffffff1673ffffffffffffffffffffffffffffffffffffffff168152602001908152602001600020600082825401925050819055508173ffffffffffffffffffffffffffffffffffffffff16600073ffffffffffffffffffffffffffffffffffffffff167fddf252ad1be2c89b69c2b068fc378daa952ba7f163c4a11628f55a4df523b3ef8360405161096991906111fb565b60405180910390a361097d60008383611026565b5050565b600033905090565b600073ffffffffffffffffffffffffffffffffffffffff168373ffffffffffffffffffffffffffffffffffffffff16036109f8576040517f08c379a00000000000000000000000000000000000000000000000000000000081526004016109ef906116a7565b60405180910390fd5b600073ffffffffffffffffffffffffffffffffffffffff168273ffffffffffffffffffffffffffffffffffffffff1603610a67576040517f08c379a0000000000000000000000000000000000000000000000000000000008152600401610a5e90611739565b60405180910390fd5b80600160008573ffffffffffffffffffffffffffffffffffffffff1673ffffffffffffffffffffffffffffffffffffffff16815260200190815260200160002060008473ffffffffffffffffffffffffffffffffffffffff1673ffffffffffffffffffffffffffffffffffffffff168152602001908152602001600020819055508173ffffffffffffffffffffffffffffffffffffffff168373ffffffffffffffffffffffffffffffffffffffff167f8c5be1e5ebec7d5bd14f71427d1e84f3dd0314c0f7b2291e5b200ac8c7c3b92583604051610b4591906111fb565b60405180910390a3505050565b6000610b5e848461073a565b90507fffffffffffffffffffffffffffffffffffffffffffffffffffffffffffffffff8114610bd85781811015610bca576040517f08c379a0000000000000000000000000000000000000000000000000000000008152600401610bc1906117a5565b60405180910390fd5b610bd78484848403610989565b5b50505050565b600073ffffffffffffffffffffffffffffffffffffffff168373ffffffffffffffffffffffffffffffffffffffff1603610c4d576040517f08c379a0000000000000000000000000000000000000000000000000000000008152600401610c4490611837565b60405180910390fd5b600073ffffffffffffffffffffffffffffffffffffffff168273ffffffffffffffffffffffffffffffffffffffff1603610cbc576040517f08c379a0000000000000000000000000000000000000000000000000000000008152600401610cb3906118c9565b60405180910390fd5b610cc7838383611021565b60008060008573ffffffffffffffffffffffffffffffffffffffff1673ffffffffffffffffffffffffffffffffffffffff16815260200190815260200160002054905081811015610d4d576040517f08c379a0000000000000000000000000000000000000000000000000000000008152600401610d449061195b565b60405180910390fd5b8181036000808673ffffffffffffffffffffffffffffffffffffffff1673ffffffffffffffffffffffffffffffffffffffff16815260200190815260200160002081905550816000808573ffffffffffffffffffffffffffffffffffffffff1673ffffffffffffffffffffffffffffffffffffffff168152602001908152602001600020600082825401925050819055508273ffffffffffffffffffffffffffffffffffffffff168473ffffffffffffffffffffffffffffffffffffffff167fddf252ad1be2c89b69c2b068fc378daa952ba7f163c4a11628f55a4df523b3ef84604051610e3b91906111fb565b60405180910390a3610e4e848484611026565b50505050565b600073ffffffffffffffffffffffffffffffffffffffff168273ffffffffffffffffffffffffffffffffffffffff1603610ec3576040517f08c379a0000000000000000000000000000000000000000000000000000000008152600401610eba906119ed565b60405180910390fd5b610ecf82600083611021565b60008060008473ffffffffffffffffffffffffffffffffffffffff1673ffffffffffffffffffffffffffffffffffffffff16815260200190815260200160002054905081811015610f55576040517f08c379a0000000000000000000000000000000000000000000000000000000008152600401610f4c90611a7f565b60405180910390fd5b8181036000808573ffffffffffffffffffffffffffffffffffffffff1673ffffffffffffffffffffffffffffffffffffffff1681526020019081526020016000208190555081600260008282540392505081905550600073ffffffffffffffffffffffffffffffffffffffff168373ffffffffffffffffffffffffffffffffffffffff167fddf252ad1be2c89b69c2b068fc378daa952ba7f163c4a11628f55a4df523b3ef8460405161100891906111fb565b60405180910390a361101c83600084611026565b505050565b505050565b505050565b600081519050919050565b600082825260208201905092915050565b60005b8381101561106557808201518184015260208101905061104a565b60008484015250505050565b6000601f19601f8301169050919050565b600061108d8261102b565b6110978185611036565b93506110a7818560208601611047565b6110b081611071565b840191505092915050565b600060208201905081810360008301526110d58184611082565b905092915050565b600080fd5b600073ffffffffffffffffffffffffffffffffffffffff82169050919050565b600061110d826110e2565b9050919050565b61111d81611102565b811461112857600080fd5b50565b60008135905061113a81611114565b92915050565b6000819050919050565b61115381611140565b811461115e57600080fd5b50565b6000813590506111708161114a565b92915050565b6000806040838503121561118d5761118c6110dd565b5b600061119b8582860161112b565b92505060206111ac85828601611161565b9150509250929050565b60008115159050919050565b6111cb816111b6565b82525050565b60006020820190506111e660008301846111c2565b92915050565b6111f581611140565b82525050565b600060208201905061121060008301846111ec565b92915050565b60008060006060848603121561122f5761122e6110dd565b5b600061123d8682870161112b565b935050602061124e8682870161112b565b925050604061125f86828701611161565b9150509250925092565b600060ff82169050919050565b61127f81611269565b82525050565b600060208201905061129a6000830184611276565b92915050565b6000602082840312156112b6576112b56110dd565b5b60006112c484828501611161565b91505092915050565b6000602082840312156112e3576112e26110dd565b5b60006112f18482850161112b565b91505092915050565b6000611305826110e2565b9050919050565b611315816112fa565b82525050565b6000602082019050611330600083018461130c565b92915050565b6000806040838503121561134d5761134c6110dd565b5b600061135b8582860161112b565b925050602061136c8582860161112b565b9150509250929050565b7f4e487b7100000000000000000000000000000000000000000000000000000000600052602260045260246000fd5b600060028204905060018216806113bd57607f821691505b6020821081036113d0576113cf611376565b5b50919050565b7f4e487b7100000000000000000000000000000000000000000000000000000000600052601160045260246000fd5b600061141082611140565b915061141b83611140565b9250828201905080821115611433576114326113d6565b5b92915050565b7f4f6e6c79206f776e65722063616e2061636365737320746869732066756e637460008201527f696f6e0000000000000000000000000000000000000000000000000000000000602082015250565b6000611495602383611036565b91506114a082611439565b604082019050919050565b600060208201905081810360008301526114c481611488565b9050919050565b7f45524332303a2064656372656173656420616c6c6f77616e63652062656c6f7760008201527f207a65726f000000000000000000000000000000000000000000000000000000602082015250565b6000611527602583611036565b9150611532826114cb565b604082019050919050565b600060208201905081810360008301526115568161151a565b9050919050565b7f45524332304361707065643a2063617020657863656564656400000000000000600082015250565b6000611593601983611036565b915061159e8261155d565b602082019050919050565b600060208201905081810360008301526115c281611586565b9050919050565b7f45524332303a206d696e7420746f20746865207a65726f206164647265737300600082015250565b60006115ff601f83611036565b915061160a826115c9565b602082019050919050565b6000602082019050818103600083015261162e816115f2565b9050919050565b7f45524332303a20617070726f76652066726f6d20746865207a65726f2061646460008201527f7265737300000000000000000000000000000000000000000000000000000000602082015250565b6000611691602483611036565b915061169c82611635565b604082019050919050565b600060208201905081810360008301526116c081611684565b9050919050565b7f45524332303a20617070726f766520746f20746865207a65726f20616464726560008201527f7373000000000000000000000000000000000000000000000000000000000000602082015250565b6000611723602283611036565b915061172e826116c7565b604082019050919050565b6000602082019050818103600083015261175281611716565b9050919050565b7f45524332303a20696e73756666696369656e7420616c6c6f77616e6365000000600082015250565b600061178f601d83611036565b915061179a82611759565b602082019050919050565b600060208201905081810360008301526117be81611782565b9050919050565b7f45524332303a207472616e736665722066726f6d20746865207a65726f20616460008201527f6472657373000000000000000000000000000000000000000000000000000000602082015250565b6000611821602583611036565b915061182c826117c5565b604082019050919050565b6000602082019050818103600083015261185081611814565b9050919050565b7f45524332303a207472616e7366657220746f20746865207a65726f206164647260008201527f6573730000000000000000000000000000000000000000000000000000000000602082015250565b60006118b3602383611036565b91506118be82611857565b604082019050919050565b600060208201905081810360008301526118e2816118a6565b9050919050565b7f45524332303a207472616e7366657220616d6f756e742065786365656473206260008201527f616c616e63650000000000000000000000000000000000000000000000000000602082015250565b6000611945602683611036565b9150611950826118e9565b604082019050919050565b6000602082019050818103600083015261197481611938565b9050919050565b7f45524332303a206275726e2066726f6d20746865207a65726f2061646472657360008201527f7300000000000000000000000000000000000000000000000000000000000000602082015250565b60006119d7602183611036565b91506119e28261197b565b604082019050919050565b60006020820190508181036000830152611a06816119ca565b9050919050565b7f45524332303a206275726e20616d6f756e7420657863656564732062616c616e60008201527f6365000000000000000000000000000000000000000000000000000000000000602082015250565b6000611a69602283611036565b9150611a7482611a0d565b604082019050919050565b60006020820190508181036000830152611a9881611a5c565b905091905056fea26469706673582212205279d245b853f6dc67ffe15e12473c815c67905bbc49c22812b702192d1714f864736f6c63430008110033",
  "linkReferences": {},
  "deployedLinkReferences": {}
}