{
  "_format": "hh-sol-artifact-1",
  "contractName": "tokenFaucet",
  "sourceName": "contracts/HellTokenFaucet.sol",
  "abi": [
    {
      "inputs": [
        {
          "internalType": "address",
          "name": "tokenAddress",
          "type": "address"
        }
      ],
      "stateMutability": "nonpayable",
      "type": "constructor"
    },
    {
      "anonymous": false,
      "inputs": [
        {
          "indexed": true,
          "internalType": "address",
          "name": "from",
          "type": "address"
        },
        {
          "indexed": true,
          "internalType": "uint256",
          "name": "amount",
          "type": "uint256"
        }
      ],
      "name": "Deposit",
      "type": "event"
    },
    {
      "anonymous": false,
      "inputs": [
        {
          "indexed": true,
          "internalType": "address",
          "name": "to",
          "type": "address"
        },
        {
          "indexed": true,
          "internalType": "uint256",
          "name": "amount",
          "type": "uint256"
        }
      ],
      "name": "Withdrawl",
      "type": "event"
    },
    {
      "inputs": [
        {
          "internalType": "uint256",
          "name": "_nextAccessTime",
          "type": "uint256"
        }
      ],
      "name": "changeNextAccessTime",
      "outputs": [],
      "stateMutability": "nonpayable",
      "type": "function"
    },
    {
      "inputs": [
        {
          "internalType": "uint256",
          "name": "_withdrawlAmount",
          "type": "uint256"
        }
      ],
      "name": "changeWithdrawlAmount",
      "outputs": [],
      "stateMutability": "nonpayable",
      "type": "function"
    },
    {
      "inputs": [],
      "name": "getBalance",
      "outputs": [
        {
          "internalType": "uint256",
          "name": "",
          "type": "uint256"
        }
      ],
      "stateMutability": "view",
      "type": "function"
    },
    {
      "inputs": [],
      "name": "nextAccessTime",
      "outputs": [
        {
          "internalType": "uint256",
          "name": "",
          "type": "uint256"
        }
      ],
      "stateMutability": "view",
      "type": "function"
    },
    {
      "inputs": [],
      "name": "owner",
      "outputs": [
        {
          "internalType": "address payable",
          "name": "",
          "type": "address"
        }
      ],
      "stateMutability": "view",
      "type": "function"
    },
    {
      "inputs": [],
      "name": "requestTokens",
      "outputs": [],
      "stateMutability": "payable",
      "type": "function"
    },
    {
      "inputs": [],
      "name": "token",
      "outputs": [
        {
          "internalType": "contract IERC20",
          "name": "",
          "type": "address"
        }
      ],
      "stateMutability": "view",
      "type": "function"
    },
    {
      "inputs": [],
      "name": "withdraw",
      "outputs": [],
      "stateMutability": "nonpayable",
      "type": "function"
    },
    {
      "inputs": [],
      "name": "withdrawlAmount",
      "outputs": [
        {
          "internalType": "uint256",
          "name": "",
          "type": "uint256"
        }
      ],
      "stateMutability": "view",
      "type": "function"
    },
    {
      "stateMutability": "payable",
      "type": "receive"
    }
  ],
  "bytecode": "0x60806040523480156200001157600080fd5b50604051620010e8380380620010e8833981810160405281019062000037919062000140565b80600160006101000a81548173ffffffffffffffffffffffffffffffffffffffff021916908373ffffffffffffffffffffffffffffffffffffffff160217905550336000806101000a81548173ffffffffffffffffffffffffffffffffffffffff021916908373ffffffffffffffffffffffffffffffffffffffff160217905550670de0b6b3a7640000600281905550603c6003819055505062000172565b600080fd5b600073ffffffffffffffffffffffffffffffffffffffff82169050919050565b60006200010882620000db565b9050919050565b6200011a81620000fb565b81146200012657600080fd5b50565b6000815190506200013a816200010f565b92915050565b600060208284031215620001595762000158620000d6565b5b6000620001698482850162000129565b91505092915050565b610f6680620001826000396000f3fe60806040526004361061008a5760003560e01c806338874d611161005957806338874d61146101655780633ccfd60b1461018e5780638da5cb5b146101a5578063a905009f146101d0578063fc0c546a146101f9576100d5565b80630967294f146100da5780630ac30d2f1461010557806312065fe014610130578063359cf2b71461015b576100d5565b366100d557343373ffffffffffffffffffffffffffffffffffffffff167fe1fffcc4923d04b559f4d29a8bfc6cda04eb5b0d3c460751c2402c5c5cc9109c60405160405180910390a3005b600080fd5b3480156100e657600080fd5b506100ef610224565b6040516100fc9190610a62565b60405180910390f35b34801561011157600080fd5b5061011a61022a565b6040516101279190610a62565b60405180910390f35b34801561013c57600080fd5b50610145610230565b6040516101529190610a62565b60405180910390f35b610163610362565b005b34801561017157600080fd5b5061018c60048036038101906101879190610aae565b610617565b005b34801561019a57600080fd5b506101a36106bb565b005b3480156101b157600080fd5b506101ba610954565b6040516101c79190610b1c565b60405180910390f35b3480156101dc57600080fd5b506101f760048036038101906101f29190610aae565b610978565b005b34801561020557600080fd5b5061020e610a23565b60405161021b9190610b96565b60405180910390f35b60025481565b60035481565b60008060009054906101000a900473ffffffffffffffffffffffffffffffffffffffff1673ffffffffffffffffffffffffffffffffffffffff163373ffffffffffffffffffffffffffffffffffffffff16146102c1576040517f08c379a00000000000000000000000000000000000000000000000000000000081526004016102b890610c34565b60405180910390fd5b600160009054906101000a900473ffffffffffffffffffffffffffffffffffffffff1673ffffffffffffffffffffffffffffffffffffffff166370a08231306040518263ffffffff1660e01b815260040161031c9190610c75565b602060405180830381865afa158015610339573d6000803e3d6000fd5b505050506040513d601f19601f8201168201806040525081019061035d9190610ca5565b905090565b600073ffffffffffffffffffffffffffffffffffffffff163373ffffffffffffffffffffffffffffffffffffffff16036103d1576040517f08c379a00000000000000000000000000000000000000000000000000000000081526004016103c890610d1e565b60405180910390fd5b600254600160009054906101000a900473ffffffffffffffffffffffffffffffffffffffff1673ffffffffffffffffffffffffffffffffffffffff166370a08231306040518263ffffffff1660e01b815260040161042f9190610c75565b602060405180830381865afa15801561044c573d6000803e3d6000fd5b505050506040513d601f19601f820116820180604052508101906104709190610ca5565b10156104b1576040517f08c379a00000000000000000000000000000000000000000000000000000000081526004016104a890610db0565b60405180910390fd5b600460003373ffffffffffffffffffffffffffffffffffffffff1673ffffffffffffffffffffffffffffffffffffffff16815260200190815260200160002054421015610533576040517f08c379a000000000000000000000000000000000000000000000000000000000815260040161052a90610e42565b60405180910390fd5b600354426105419190610e91565b600460003373ffffffffffffffffffffffffffffffffffffffff1673ffffffffffffffffffffffffffffffffffffffff16815260200190815260200160002081905550600160009054906101000a900473ffffffffffffffffffffffffffffffffffffffff1673ffffffffffffffffffffffffffffffffffffffff1663a9059cbb336002546040518363ffffffff1660e01b81526004016105e3929190610ec5565b600060405180830381600087803b1580156105fd57600080fd5b505af1158015610611573d6000803e3d6000fd5b50505050565b60008054906101000a900473ffffffffffffffffffffffffffffffffffffffff1673ffffffffffffffffffffffffffffffffffffffff163373ffffffffffffffffffffffffffffffffffffffff16146106a5576040517f08c379a000000000000000000000000000000000000000000000000000000000815260040161069c90610c34565b60405180910390fd5b603c816106b29190610eee565b60038190555050565b60008054906101000a900473ffffffffffffffffffffffffffffffffffffffff1673ffffffffffffffffffffffffffffffffffffffff163373ffffffffffffffffffffffffffffffffffffffff1614610749576040517f08c379a000000000000000000000000000000000000000000000000000000000815260040161074090610c34565b60405180910390fd5b600160009054906101000a900473ffffffffffffffffffffffffffffffffffffffff1673ffffffffffffffffffffffffffffffffffffffff1663a9059cbb33600160009054906101000a900473ffffffffffffffffffffffffffffffffffffffff1673ffffffffffffffffffffffffffffffffffffffff166370a08231306040518263ffffffff1660e01b81526004016107e39190610c75565b602060405180830381865afa158015610800573d6000803e3d6000fd5b505050506040513d601f19601f820116820180604052508101906108249190610ca5565b6040518363ffffffff1660e01b8152600401610841929190610ec5565b600060405180830381600087803b15801561085b57600080fd5b505af115801561086f573d6000803e3d6000fd5b50505050600160009054906101000a900473ffffffffffffffffffffffffffffffffffffffff1673ffffffffffffffffffffffffffffffffffffffff166370a08231306040518263ffffffff1660e01b81526004016108ce9190610c75565b602060405180830381865afa1580156108eb573d6000803e3d6000fd5b505050506040513d601f19601f8201168201806040525081019061090f9190610ca5565b3373ffffffffffffffffffffffffffffffffffffffff167f65ac0d8bb8cbc0e989ebd02ddc5161d7c499f7c21792e43fcf170314fe6bcc3f60405160405180910390a3565b60008054906101000a900473ffffffffffffffffffffffffffffffffffffffff1681565b60008054906101000a900473ffffffffffffffffffffffffffffffffffffffff1673ffffffffffffffffffffffffffffffffffffffff163373ffffffffffffffffffffffffffffffffffffffff1614610a06576040517f08c379a00000000000000000000000000000000000000000000000000000000081526004016109fd90610c34565b60405180910390fd5b670de0b6b3a764000081610a1a9190610eee565b60028190555050565b600160009054906101000a900473ffffffffffffffffffffffffffffffffffffffff1681565b6000819050919050565b610a5c81610a49565b82525050565b6000602082019050610a776000830184610a53565b92915050565b600080fd5b610a8b81610a49565b8114610a9657600080fd5b50565b600081359050610aa881610a82565b92915050565b600060208284031215610ac457610ac3610a7d565b5b6000610ad284828501610a99565b91505092915050565b600073ffffffffffffffffffffffffffffffffffffffff82169050919050565b6000610b0682610adb565b9050919050565b610b1681610afb565b82525050565b6000602082019050610b316000830184610b0d565b92915050565b6000819050919050565b6000610b5c610b57610b5284610adb565b610b37565b610adb565b9050919050565b6000610b6e82610b41565b9050919050565b6000610b8082610b63565b9050919050565b610b9081610b75565b82525050565b6000602082019050610bab6000830184610b87565b92915050565b600082825260208201905092915050565b7f4f6e6c79204f776e65722063616e2061636365737320746869732066756e637460008201527f696f6e0000000000000000000000000000000000000000000000000000000000602082015250565b6000610c1e602383610bb1565b9150610c2982610bc2565b604082019050919050565b60006020820190508181036000830152610c4d81610c11565b9050919050565b6000610c5f82610adb565b9050919050565b610c6f81610c54565b82525050565b6000602082019050610c8a6000830184610c66565b92915050565b600081519050610c9f81610a82565b92915050565b600060208284031215610cbb57610cba610a7d565b5b6000610cc984828501610c90565b91505092915050565b7f506c6561736520456e74657220412056616c6964204164647265737300000000600082015250565b6000610d08601c83610bb1565b9150610d1382610cd2565b602082019050919050565b60006020820190508181036000830152610d3781610cfb565b9050919050565b7f496e7375666669656e7420546f6b656e7320496e2046617563657420436f6e7460008201527f7261637400000000000000000000000000000000000000000000000000000000602082015250565b6000610d9a602483610bb1565b9150610da582610d3e565b604082019050919050565b60006020820190508181036000830152610dc981610d8d565b9050919050565b7f506c65617365205761697420466f7220323420486f757273204265666f72652060008201527f52657175657374696e6720416761696e00000000000000000000000000000000602082015250565b6000610e2c603083610bb1565b9150610e3782610dd0565b604082019050919050565b60006020820190508181036000830152610e5b81610e1f565b9050919050565b7f4e487b7100000000000000000000000000000000000000000000000000000000600052601160045260246000fd5b6000610e9c82610a49565b9150610ea783610a49565b9250828201905080821115610ebf57610ebe610e62565b5b92915050565b6000604082019050610eda6000830185610c66565b610ee76020830184610a53565b9392505050565b6000610ef982610a49565b9150610f0483610a49565b9250828202610f1281610a49565b91508282048414831517610f2957610f28610e62565b5b509291505056fea264697066735822122053ae68e484c39f9e5a4cc84e239ec78c4deb8dc817dd7aaef294861b2ef8ee9164736f6c63430008110033",
  "linkReferences": {},
  "deployedLinkReferences": {}
}